{
  "contractName": "SimpleStorage",
  "abi": [
    {
      "constant": true,
      "inputs": [
        {
          "internalType": "uint256",
          "name": "",
          "type": "uint256"
        }
      ],
      "name": "cards",
      "outputs": [
        {
          "internalType": "uint256",
          "name": "id",
          "type": "uint256"
        },
        {
          "internalType": "uint256",
          "name": "strength",
          "type": "uint256"
        },
        {
          "internalType": "uint256",
          "name": "defence",
          "type": "uint256"
        }
      ],
      "payable": false,
      "stateMutability": "view",
      "type": "function"
    },
    {
      "constant": false,
      "inputs": [
        {
          "internalType": "uint256",
          "name": "x",
          "type": "uint256"
        }
      ],
      "name": "set",
      "outputs": [],
      "payable": false,
      "stateMutability": "nonpayable",
      "type": "function"
    },
    {
      "constant": true,
      "inputs": [],
      "name": "get",
      "outputs": [
        {
          "internalType": "uint256",
          "name": "",
          "type": "uint256"
        }
      ],
      "payable": false,
      "stateMutability": "view",
      "type": "function"
    },
    {
      "constant": false,
      "inputs": [
        {
          "internalType": "uint256",
          "name": "y",
          "type": "uint256"
        }
      ],
      "name": "setNewValue",
      "outputs": [],
      "payable": false,
      "stateMutability": "nonpayable",
      "type": "function"
    },
    {
      "constant": true,
      "inputs": [],
      "name": "getNewValue",
      "outputs": [
        {
          "internalType": "uint256",
          "name": "",
          "type": "uint256"
        }
      ],
      "payable": false,
      "stateMutability": "view",
      "type": "function"
    },
    {
      "constant": true,
      "inputs": [],
      "name": "getCards",
      "outputs": [
        {
          "components": [
            {
              "internalType": "uint256",
              "name": "id",
              "type": "uint256"
            },
            {
              "internalType": "uint256",
              "name": "strength",
              "type": "uint256"
            },
            {
              "internalType": "uint256",
              "name": "defence",
              "type": "uint256"
            }
          ],
          "internalType": "struct SimpleStorage.card[]",
          "name": "",
          "type": "tuple[]"
        }
      ],
      "payable": false,
      "stateMutability": "view",
      "type": "function"
    },
    {
      "constant": false,
      "inputs": [
        {
          "internalType": "uint256",
          "name": "id",
          "type": "uint256"
        },
        {
          "internalType": "uint256",
          "name": "strength",
          "type": "uint256"
        },
        {
          "internalType": "uint256",
          "name": "defence",
          "type": "uint256"
        }
      ],
      "name": "createCard",
      "outputs": [
        {
          "internalType": "uint256",
          "name": "",
          "type": "uint256"
        }
      ],
      "payable": false,
      "stateMutability": "nonpayable",
      "type": "function"
    }
  ],
  "bytecode": "0x608060405234801561001057600080fd5b5061058f806100206000396000f3fe608060405234801561001057600080fd5b506004361061007d5760003560e01c80638dc107681161005b5780638dc10768146100da578063951c40771461010c578063b0df9e5314610128578063dafc88df146101465761007d565b806354fee6441461008257806360fe47b1146100a05780636d4ce63c146100bc575b600080fd5b61008a610176565b60405161009791906104a0565b60405180910390f35b6100ba60048036036100b59190810190610330565b610180565b005b6100c461018a565b6040516100d191906104a0565b60405180910390f35b6100f460048036036100ef9190810190610330565b610193565b604051610103939291906104bb565b60405180910390f35b61012660048036036101219190810190610330565b6101bd565b005b6101306101c7565b60405161013d919061047e565b60405180910390f35b610160600480360361015b9190810190610359565b610244565b60405161016d91906104a0565b60405180910390f35b6000600154905090565b8060008190555050565b60008054905090565b60026020528060005260406000206000915090508060000154908060010154908060020154905083565b8060018190555050565b60606003805480602002602001604051908101604052809291908181526020016000905b8282101561023b57838290600052602060002090600302016040518060600160405290816000820154815260200160018201548152602001600282015481525050815260200190600101906101eb565b50505050905090565b600061024e6102fa565b6040518060600160405280868152602001858152602001848152509050806002600087815260200190815260200160002060008201518160000155602082015181600101556040820151816002015590505060038190806001815401808255809150509060018203906000526020600020906003020160009091929091909150600082015181600001556020820151816001015560408201518160020155505050849150509392505050565b60405180606001604052806000815260200160008152602001600081525090565b60008135905061032a81610535565b92915050565b60006020828403121561034257600080fd5b60006103508482850161031b565b91505092915050565b60008060006060848603121561036e57600080fd5b600061037c8682870161031b565b935050602061038d8682870161031b565b925050604061039e8682870161031b565b9150509250925092565b60006103b4838361041e565b60608301905092915050565b60006103cb82610502565b6103d5818561051a565b93506103e0836104f2565b8060005b838110156104115781516103f888826103a8565b97506104038361050d565b9250506001810190506103e4565b5085935050505092915050565b6060820160008201516104346000850182610460565b5060208201516104476020850182610460565b50604082015161045a6040850182610460565b50505050565b6104698161052b565b82525050565b6104788161052b565b82525050565b6000602082019050818103600083015261049881846103c0565b905092915050565b60006020820190506104b5600083018461046f565b92915050565b60006060820190506104d0600083018661046f565b6104dd602083018561046f565b6104ea604083018461046f565b949350505050565b6000819050602082019050919050565b600081519050919050565b6000602082019050919050565b600082825260208201905092915050565b6000819050919050565b61053e8161052b565b811461054957600080fd5b5056fea365627a7a72315820b6672b009adfc4bc2da0ba717286e7289400d83ece9f76a4fc62bea027a07c916c6578706572696d656e74616cf564736f6c63430005100040",
  "source": "// SPDX-License-Identifier: MIT\npragma solidity ^0.5.0;\npragma experimental ABIEncoderV2;\n\ncontract SimpleStorage {\n  uint storedData;\n  uint newValue;\n\n  \n  struct card {\n      uint256 id;\n      uint256 strength;\n      uint256 defence;\n  }\n  mapping(uint256 => card) public cards;\n  card[] cardsArray;\n  function set(uint x) public {\n    storedData = x;\n  }\n\n  function get() public view returns (uint) {\n    return storedData;\n  }\n\n  function setNewValue(uint y) public {\n    newValue = y;\n  }\n\n  function getNewValue() public view returns (uint) {\n    return newValue;\n  }\n\n  function getCards() external view returns(card[] memory) {\n    return cardsArray;\n  }\n\n\n  function createCard(uint256 id, uint256 strength, uint256 defence) public  returns (uint256) {\n    \n    card memory newCard = card(\n        id,\n        strength,\n        defence\n    );  \n\n    cards[id] = newCard;\n    cardsArray.push(newCard);\n    return id;\n  }\n}\n",
  "sourcePath": "C:/Users/lixua/OneDrive/NUS/IS4302/truffle-box/contracts/SimpleStorage.sol",
  "compiler": {
    "name": "solc",
    "version": "0.5.16+commit.9c3226ce.Emscripten.clang"
  },
  "schemaVersion": "3.3.3",
  "updatedAt": "2021-03-18T15:59:05.831Z",
  "networkType": "ethereum",
  "devdoc": {
    "methods": {}
  },
  "userdoc": {
    "methods": {}
  }
}