{
  "contractName": "SimpleStorage",
  "abi": [
    {
      "constant": true,
      "inputs": [
        {
          "internalType": "uint256",
          "name": "",
          "type": "uint256"
        }
      ],
      "name": "cards",
      "outputs": [
        {
          "internalType": "uint256",
          "name": "id",
          "type": "uint256"
        },
        {
          "internalType": "uint256",
          "name": "strength",
          "type": "uint256"
        },
        {
          "internalType": "string",
          "name": "defence",
          "type": "string"
        }
      ],
      "payable": false,
      "stateMutability": "view",
      "type": "function"
    },
    {
      "constant": false,
      "inputs": [
        {
          "internalType": "uint256",
          "name": "x",
          "type": "uint256"
        }
      ],
      "name": "set",
      "outputs": [],
      "payable": false,
      "stateMutability": "nonpayable",
      "type": "function"
    },
    {
      "constant": true,
      "inputs": [],
      "name": "get",
      "outputs": [
        {
          "internalType": "uint256",
          "name": "",
          "type": "uint256"
        }
      ],
      "payable": false,
      "stateMutability": "view",
      "type": "function"
    },
    {
      "constant": false,
      "inputs": [
        {
          "internalType": "uint256",
          "name": "y",
          "type": "uint256"
        }
      ],
      "name": "setNewValue",
      "outputs": [],
      "payable": false,
      "stateMutability": "nonpayable",
      "type": "function"
    },
    {
      "constant": true,
      "inputs": [],
      "name": "getNewValue",
      "outputs": [
        {
          "internalType": "uint256",
          "name": "",
          "type": "uint256"
        }
      ],
      "payable": false,
      "stateMutability": "view",
      "type": "function"
    },
    {
      "constant": true,
      "inputs": [],
      "name": "getCards",
      "outputs": [
        {
          "components": [
            {
              "internalType": "uint256",
              "name": "id",
              "type": "uint256"
            },
            {
              "internalType": "uint256",
              "name": "strength",
              "type": "uint256"
            },
            {
              "internalType": "string",
              "name": "defence",
              "type": "string"
            }
          ],
          "internalType": "struct SimpleStorage.card[]",
          "name": "",
          "type": "tuple[]"
        }
      ],
      "payable": false,
      "stateMutability": "view",
      "type": "function"
    },
    {
      "constant": false,
      "inputs": [
        {
          "internalType": "uint256",
          "name": "id",
          "type": "uint256"
        },
        {
          "internalType": "uint256",
          "name": "strength",
          "type": "uint256"
        },
        {
          "internalType": "string",
          "name": "defence",
          "type": "string"
        }
      ],
      "name": "createCard",
      "outputs": [
        {
          "internalType": "uint256",
          "name": "",
          "type": "uint256"
        }
      ],
      "payable": false,
      "stateMutability": "nonpayable",
      "type": "function"
    }
  ],
  "bytecode": "0x608060405234801561001057600080fd5b50610969806100206000396000f3fe608060405234801561001057600080fd5b506004361061007d5760003560e01c80637ec1010b1161005b5780637ec1010b146100da5780638dc107681461010a578063951c40771461013c578063b0df9e53146101585761007d565b806354fee6441461008257806360fe47b1146100a05780636d4ce63c146100bc575b600080fd5b61008a610176565b604051610097919061079a565b60405180910390f35b6100ba60048036036100b5919081019061057f565b610180565b005b6100c461018a565b6040516100d1919061079a565b60405180910390f35b6100f460048036036100ef91908101906105a8565b610193565b604051610101919061079a565b60405180910390f35b610124600480360361011f919081019061057f565b61026f565b604051610133939291906107b5565b60405180910390f35b6101566004803603610151919081019061057f565b610331565b005b61016061033b565b60405161016d9190610778565b60405180910390f35b6000600154905090565b8060008190555050565b60008054905090565b600061019d610450565b60405180606001604052808681526020018581526020018481525090508060026000878152602001908152602001600020600082015181600001556020820151816001015560408201518160020190805190602001906101fe929190610471565b509050506003819080600181540180825580915050906001820390600052602060002090600302016000909192909190915060008201518160000155602082015181600101556040820151816002019080519060200190610260929190610471565b50505050849150509392505050565b6002602052806000526040600020600091509050806000015490806001015490806002018054600181600116156101000203166002900480601f0160208091040260200160405190810160405280929190818152602001828054600181600116156101000203166002900480156103275780601f106102fc57610100808354040283529160200191610327565b820191906000526020600020905b81548152906001019060200180831161030a57829003601f168201915b5050505050905083565b8060018190555050565b60606003805480602002602001604051908101604052809291908181526020016000905b8282101561044757838290600052602060002090600302016040518060600160405290816000820154815260200160018201548152602001600282018054600181600116156101000203166002900480601f01602080910402602001604051908101604052809291908181526020018280546001816001161561010002031660029004801561042f5780601f106104045761010080835404028352916020019161042f565b820191906000526020600020905b81548152906001019060200180831161041257829003601f168201915b5050505050815250508152602001906001019061035f565b50505050905090565b60405180606001604052806000815260200160008152602001606081525090565b828054600181600116156101000203166002900490600052602060002090601f016020900481019282601f106104b257805160ff19168380011785556104e0565b828001600101855582156104e0579182015b828111156104df5782518255916020019190600101906104c4565b5b5090506104ed91906104f1565b5090565b61051391905b8082111561050f5760008160009055506001016104f7565b5090565b90565b600082601f83011261052757600080fd5b813561053a61053582610820565b6107f3565b9150808252602083016020830185838301111561055657600080fd5b6105618382846108bc565b50505092915050565b6000813590506105798161090f565b92915050565b60006020828403121561059157600080fd5b600061059f8482850161056a565b91505092915050565b6000806000606084860312156105bd57600080fd5b60006105cb8682870161056a565b93505060206105dc8682870161056a565b925050604084013567ffffffffffffffff8111156105f957600080fd5b61060586828701610516565b9150509250925092565b600061061b838361070a565b905092915050565b600061062e8261085c565b610638818561087f565b93508360208202850161064a8561084c565b8060005b858110156106865784840389528151610667858261060f565b945061067283610872565b925060208a0199505060018101905061064e565b50829750879550505050505092915050565b60006106a382610867565b6106ad8185610890565b93506106bd8185602086016108cb565b6106c6816108fe565b840191505092915050565b60006106dc82610867565b6106e681856108a1565b93506106f68185602086016108cb565b6106ff816108fe565b840191505092915050565b6000606083016000830151610722600086018261075a565b506020830151610735602086018261075a565b506040830151848203604086015261074d8282610698565b9150508091505092915050565b610763816108b2565b82525050565b610772816108b2565b82525050565b600060208201905081810360008301526107928184610623565b905092915050565b60006020820190506107af6000830184610769565b92915050565b60006060820190506107ca6000830186610769565b6107d76020830185610769565b81810360408301526107e981846106d1565b9050949350505050565b6000604051905081810181811067ffffffffffffffff8211171561081657600080fd5b8060405250919050565b600067ffffffffffffffff82111561083757600080fd5b601f19601f8301169050602081019050919050565b6000819050602082019050919050565b600081519050919050565b600081519050919050565b6000602082019050919050565b600082825260208201905092915050565b600082825260208201905092915050565b600082825260208201905092915050565b6000819050919050565b82818337600083830152505050565b60005b838110156108e95780820151818401526020810190506108ce565b838111156108f8576000848401525b50505050565b6000601f19601f8301169050919050565b610918816108b2565b811461092357600080fd5b5056fea365627a7a723158200adeabbeacfb5c09dcf23a7c8bf25bce5b1a821eec9cf7d4972c47e31898c8d96c6578706572696d656e74616cf564736f6c63430005100040",
  "source": "// SPDX-License-Identifier: MIT\npragma solidity ^0.5.0;\npragma experimental ABIEncoderV2;\n\ncontract SimpleStorage {\n  uint storedData;\n  uint newValue;\n\n  \n  struct card {\n      uint256 id;\n      uint256 strength;\n      string defence;\n  }\n  mapping(uint256 => card) public cards;\n  card[] cardsArray;\n  function set(uint x) public {\n    storedData = x;\n  }\n\n  function get() public view returns (uint) {\n    return storedData;\n  }\n\n  function setNewValue(uint y) public {\n    newValue = y;\n  }\n\n  function getNewValue() public view returns (uint) {\n    return newValue;\n  }\n\n  function getCards() external view returns(card[] memory) {\n    return cardsArray;\n  }\n\n\n  function createCard(uint256 id, uint256 strength, string memory defence) public  returns (uint256) {\n    card memory newCard = card(\n        id,\n        strength,\n        defence\n    );  \n\n    cards[id] = newCard;\n    cardsArray.push(newCard);\n    return id;\n  }\n}\n",
  "sourcePath": "C:/Users/lixua/OneDrive/NUS/IS4302/truffle-box/contracts/SimpleStorage.sol",
  "compiler": {
    "name": "solc",
    "version": "0.5.16+commit.9c3226ce.Emscripten.clang"
  },
  "schemaVersion": "3.3.3",
  "updatedAt": "2021-03-20T13:15:13.082Z",
  "networkType": "ethereum",
  "devdoc": {
    "methods": {}
  },
  "userdoc": {
    "methods": {}
  }
}